:0400000041EF00F0DC
:10000800FACF28F0FBCF29F0E1CF2AF0E2CF2BF08E
:10001800D9CF2CF0DACF2DF0F3CF2EF0F4CF2FF08C
:1000280019EE4AF00E0129B333A303D039EC31F0AD
:1000380013D029B533A503D036EC31F00DD0F2BC7E
:100048002EA105D038A103D0C4EC2EF005D029B9D3
:1000580033A902D020EC31F02FC0F4FF2EC0F3FFFB
:100068002DC0DAFF2CC0D9FF2BC0E2FF2AC0E1FF68
:1000780029C0FBFF28C0FAFF110016EEFEF002EFC0
:1000880023F030EC31F0020103B106D3CCDBA26FD0
:10009800A239E832070BE80601E0A0D002011D51A1
:1000A80001E09CD001016D050301A86F1DD001017D
:1000B8006D516B250001E86F000E01016C210001F4
:1000C800E96F0301A8510001E85D906FE951D8A0DC
:1000D800E90561EC26F07AEC2EF0100E0301A86514
:1000E80002D0A85F01D0A86BA851E1E1420E00013F
:1000F800DA6F020EDB6F6BC1DCF06CC1DDF0010161
:100108006D51FC0F0001DE6F1FEC29F0DAC0ABF374
:10011800DBC0ACF3DCC0ADF3DDC0AEF37DDBB8EC27
:100128002BF02CDBAB51A31909E1AC51A41906E162
:10013800AD51A51903E1AE51A6190FE095EC26F0D3
:1001480002E1A0EF2EF002510F0B030AD8A412000F
:10015800F151D8B41200A0EF2EF0020102510F0B9A
:10016800030A03E1E3519EEC30F06BC1AFF36CC1BD
:10017800B0F3030120EE07F075DBDECF1EF2DECF11
:100188001FF2DECF20F2DECF21F220EE0CF06ADB88
:10019800DF500F0B86EC2CF075DB64DBDF38070BC8
:1001A8000001646F6FDB5EDBDF500F0BBFEC2FF0DD
:1001B800AFC3A0F0B0C3A1F001016D51B2EC14F0CF
:1001C800AFC3A4F0B0C3A5F033EC26F0E66AE8ECC0
:1001D8001DF00201ADEC14F0A8EF14F00301A239F0
:1001E800E832070B030A07E0A239E832070B050AD1
:1001F80002E067EF26F00201A76B6BC1B2F36CC196
:10020800B3F3020E121901E0DAD028DB83DA020117
:100218006251DE1809E16351DE1806E16451DE1807
:1002280003E16551DE18D8A4CAD004A5C8D0B2C36A
:1002380064F0B3C365F074EC28F0000904E102012E
:100248002CDB60EF27F04DDADECFE8F075DA010E2F
:10025800746FC0EC21F0C1DA68DA100E686FA0EC98
:1002680028F07BDAA0EC28F0660ECC6F020ECD6F7A
:10027800AB0E9EDAF4EC08F0B4DA57DA040E686FC5
:10028800A0EC28F0C9DAB8EC2BF078DAA351AB1956
:10029800D6E1A451AC19D3E1A551AD19D0E1A651CD
:1002A800AE19CDE126DA0E51DE5C0F51DE581FE3A0
:1002B80018DAE2DA0E510001E85F02010F5102DBA1
:1002C8009E5D0001E95102019F590BE201016E5147
:1002D8006F11B5E0D1EC0DF0050E676F01D8AFD7FF
:1002E80064D0FFD9DECF0EF2DDCF0FF20DD0F9D9F1
:1002F800DE50DE10EBE102010E29E8E10F29E6E10C
:100308000E6B0F6B104B112B02010E2907E10F2901
:1003180005E1102903E1112901E1D8D702510F0B9A
:10032800080A08E1E4519EEC30F00201E5519EEC28
:1003380030F007D002510F0B030A03E1E5519EECA0
:1003480030F0B5DAECD9DDD975DA03E1E951EB190A
:1003580023E069DAA06F01016B4B6C2B6D51F40F30
:100368000301B16F190EA76F6BC1A4F080DAA66FF5
:10037800010EA76F0EC2A8F00FC2A9F010C2AAF012
:1003880011C2ABF0760EAC6F020E1FDA010EB16F20
:100398008FEC16F036DA01D090DA0201038302DA24
:1003A80001E14DD7F5D901D84AD70500FA6E010108
:1003B8006E51FD6E6F51FE6EFF6AFA5012004EDAF2
:1003C800A9D902011E51DE1809E11F51DE1806E104
:1003D8002051DE1803E12151DE1808E067EC26F011
:1003E800020E0201121901E12AD712007AD9DECFD2
:1003F800E8F0A2D9746B010EC0EC21F0EED995D9C2
:10040800100E686FA0EC28F0A8D9A0EC28F09FEC9B
:100418000BF0CED9F4EC08F0E4D987D9040E686F54
:10042800A0EC28F0F9D9B8EC2BF0A8D9A351AB1956
:1004380009E1A451AC1906E1A551AD1903E1A65192
:10044800AE1903E067EC26F0CBD753D90A51DE5C2E
:100458000B51DE5828E345D90FDA0A510001E85F4D
:1004680002010B512FDA9C5D0001E95102019D59EF
:1004780017E2009197D911E092EC26F0D1EC0DF03B
:10048800676B01D80AD00500FA6E01016E51FD6E46
:100498006F51FE6EFF6AFA501200020103931ED0DC
:1004A80020D915DA12D01DD9DE50DE100BE1020179
:1004B8000A2908E10B2906E114D909DA02010C4BD3
:1004C8000D2B03D067EC26F08BD702010A2909E12E
:1004D8000B2907E10C2905E10D2903E10483020E2C
:1004E80081D702510F0B030A03E1E5519EEC30F06E
:1004F800010E0201D86FB2C364F0B3C365F07FEC9C
:100508002AF00301FED811E0080EB2250001A86FF9
:10051800000E0301B3210001A96F0301F2D8000105
:10052800AA6F81EC12F0D8D901D0C1D90101F7D84E
:10053800E8D880D903E1E951EB194CE074D9A06FF0
:1005480001016B4B6C2B0301DCD80001E86FE8510B
:1005580001016D5DF40F0301B16FD3D8190FA76FB7
:10056800A0510CE06BC1A4F082D93FD9AFEC0BF0DD
:100578002CD9B16B8FEC16F044D92DD00101CFD80E
:10058800C0D80001EA6FEB6B0D0EEA27000EEB23D3
:10059800E851EA5DEB51800AEC6FE951800AEC59A9
:1005A80019E26BC1A4F06CC1A5F00301B10500010B
:1005B8001CD9ABEC0BF009D9B16B8FEC16F06BC101
:1005C800A8F06CC1A9F00301B1050001AA6F81EC84
:1005D80012F082D972D9010E0201D86FD06BD16B9B
:1005E800EE6B0099038300A134D0030120EE05F0DF
:1005F80091D8DFAA2BD002010091D4D80FE00201D4
:10060800009BC6D801D80AD00500FA6E01016E51C8
:10061800FD6E6F51FE6EFF6AFA50120002010393DD
:1006280002BB00BBDDD600B302D000A7D9D60CD9D7
:1006380011EC20F0000907E1000E34D9B8EC1FF0E6
:1006480002010097CDD607EC1BF0CAD6CCEC28F0F7
:10065800C7D6A8D80FE00201009B9AD801D80AD0C3
:100668000500FA6E01016E51FD6E6F51FE6EFF6A54
:10067800FA501200020102BB00BBB2D600B302D08E
:1006880000A7AED6E1D811EC20F00009DCE1000E9D
:1006980009D9B8EC1FF0D4D701016E516F11D8B445
:1006A80012002DEC31F00001E86FE8B70DD0EED85C
:1006B800030E676F0500FA6E01016E51FD6E6F51F2
:1006C800FE6EFF6AFA501200E1D8020E676F05004D
:1006D800FA6E01016E51FD6E6F51FE6EFF6AFA509F
:1006E8001200030120EE06F0B251D926B351DA22E6
:1006F800120020EE06F0B251D926B351DA220201D7
:10070800120020EE05F0B251D926B351DA22DF509B
:100718000F0B1200B251D926B351DA2212006D51D3
:100728000001E86FE96B03011200656FAB0E666F9D
:10073800010E676F696B1200DDCFE9F0E8C06EF05B
:10074800E9C06FF00001706B716B01016D51FC0F16
:100758000001726F490E736F490CFF0E646F050E2E
:10076800656F6BC166F06CC167F0FC0E01016D2509
:100778000001686F696BFF0E6923FF0C6EC0A3F35D
:100788006FC0A4F370C0A5F371C0A6F303011200F3
:10079800A9C364F0AAC365F0B1C366F0010E0001F5
:1007A800676F010CF00E021701016E516F111200F4
:1007B800CE6F010ECF6FEF0ED06F050ED16F010116
:1007C8006D510C0F0001D26F1200AD6FA7C3AEF0D0
:1007D800EF0EAF6F050EB06F1200EF0E646F050ECF
:1007E8001200AB0E646F030E1200A66F010EA76F06
:1007F8000AC2A8F00BC2A9F00CC2AAF00DC2ABF055
:10080800010CFF0E01016B250301A96FFF0E010109
:100818006C210301AA6F12006BC16EF06CC16FF0FE
:100828006DC170F012006BC1D9FF6CC1DAFFDF50E7
:10083800030112000001EA6FEB6B0C0EEA27000EB1
:10084800EB23E851EA191200010E0001A96FA10E6D
:10085800AA6F030EAB6F0201ED511200030120EEE7
:1008680001F01200AF51D926B051DA2212006CC142
:10087800A5F0B10500011200DECFE8F0DDCFE9F008
:1008880002011200030120EE0BF012006BC164F0AC
:100898006CC165F06DC166F012000251F00B0909D8
:1008A800026F1200E16FE26FE36FE46F1200080E4F
:1008B80001016B27000E6C23000C0301B16BA96BBF
:1008C800AA6B12000001E95BE85102011200DECFB9
:1008D8000AF2DDCF0BF21200A8C06BF1A9C06CF1CF
:1008E8001200020103B1D2D10001C66BC76BC86BFD
:1008F800C96BCA6BD369D469D569D6690201F16B32
:100908000251F00B0209026FDAC2D7F000A538D005
:100918007D0E17252FDA0DDAF5CFB6F0985133DAB8
:100928009921E3D955EC25F0FAD9E2514FEC2CF096
:100938003ADA20DAFED9F5CFB6F09A5124DA9B21BB
:10094800D4D955EC25F0EBD9E3514FEC2CF002014A
:10095800E251FEEC25F00201E351FEEC25F0DBC28A
:1009680094F0DCC295F0966B976BD60E986F0B0ED1
:10097800E4EC08F034EC2AF0E2D934EC2AF04CD05C
:100988007D0E1725F7D9D5D9F5CFB6F09451FBD9F7
:100998009521ABD955EC25F0C2D9E4514FEC2CF098
:1009A80002DAE8D9C6D9F5CFB6F09651ECD9972135
:1009B8009CD955EC25F0B3D9E5514FEC2CF0020148
:1009C800E451FEEC25F00201125103E1E551FEEC81
:1009D80025F00001D751DFD9DECFB6F0DDCFB7F073
:1009E800B651B86FB751B96FBA6BBB6BB829946F72
:1009F800000EB921956F000EBA21966F000EBB212B
:100A0800976FDBC298F0DCC299F09A6B9B6B34EC61
:100A18002AF095D934EC2AF0D7515FD994C0DEFF7B
:100A280095C0DEFF96C0DEFF97C0DEFF0201E951E8
:100A38005AEC30F0000965E00201E9519EEC30F013
:100A48000201E951F0EC2CF08BC0CFF08CC0D0F053
:100A58008DC0D1F08EC0D2F0D25107E11F0ECF5D0C
:100A6800AC0ED059DF0ED1591EE3CFC0B6F0D0C0BE
:100A7800B7F0D1C0B8F0D2C0B9F00D0E05D0D890FB
:100A8800B933B833B733B633E82EF9D7B6C094F0D4
:100A9800B7C095F0B8C096F0B9C097F07D0E6ED982
:100AA80034EC2AF012D0CFC094F0D0C095F0D1C069
:100AB80096F0D2C097F07D0E61D934EC2AF00D0E75
:100AC80002D00FEC1AF0E82EFCD794C0BEF095C007
:100AD800BFF096C0C0F097C0C1F0BE510201C85D1A
:100AE8000001C76FBF510201C9590001C86FC05149
:100AF8000201CA590001C96FC1510201CB59000155
:100B0800CA6FD76BD751B7EC21F057E1D751E5D869
:100B1800DDEC0EF052E0D7510201DA1931E00001A4
:100B2800D751DBD8DE50C75DDE50C859DE50C959F1
:100B3800DE50CA5921E2D751D0D8DECFB6F0DECF89
:100B4800B7F0DECFB8F0DECFB9F0C751B65DBA6FF7
:100B5800C851B759BB6FC951B859BC6FCA51B959B7
:100B6800BD6FD751BAD8BAC0DEFFBBC0DEFFBCC06C
:100B7800DEFFBDC0DEFF04D0D751AFD8CFEC1DF0EB
:100B88000001D751AAD8DE50D35DDE50D459DE50CB
:100B9800D559DE50D65911E3D7519FD8DDEC0EF068
:100BA8000CE0D7519AD8DECFD3F0DECFD4F0DECF29
:100BB800D5F0DECFD6F0010EC66FD72B0F0ED76556
:100BC800A1D7C60558E1D3C0C8F2D4C0C9F2D5C070
:100BD800CAF2D6C0CBF2D65106E1D329FF0ED459BA
:100BE8000F0ED55913E3D3C064F0D4C065F0D5C057
:100BF80066F0D6C067F07D0E99EC11F055EC25F043
:100C08000C0EA7EC11F0E82EFCD71DD0D3C0B6F01F
:100C1800D4C0B7F0D5C0B8F0D6C0B9F00C0ED89093
:100C2800B637B737B837B937E82EF9D7B6C064F052
:100C3800B7C065F0B8C066F0B9C067F07D0E99EC32
:100C480011F055EC25F064C0C2F065C0C3F066C071
:100C5800C4F067C0C5F0C2C071F0C3C072F0C4C0B0
:100C680073F0C5C074F00201E9514FEC2CF0020199
:100C7800E951FEEC25F0020E02011219D8A4120067
:100C88000251F00B0809026F60EF27F02DEC31F0EC
:100C98000001B66FB6A90FD0646B656B666B020E68
:100CA800676F0500FA6E01016E51FD6E6F51FE6EA1
:100CB800FF6AFA501200DBEC0DF0D8B41200D1EC48
:100CC8000DF0030E676F0500FA6E01016E51FD6E9F
:100CD8006F51FE6EFF6AFA5012000E0D080EF324D3
:100CE800D96E040EF420DA6E12000001B86FB96BE9
:100CF800BA6B0C0ED890B737B837B937BA37E82E71
:100D0800F9D7B7C064F0B8C065F0B9C066F0BAC02A
:100D180067F07D0E686F696B6A6B6B6B7D0C64C0E6
:100D280071F065C072F066C073F067C074F00201BC
:100D38001200F722F86A000EF82208001200FF0ECF
:100D48009425CB6FFF0E9521CC6FFF0E9621CD6FAA
:100D5800FF0E9721CE6FCBC094F0CCC095F0CDC0DC
:100D680096F0CEC097F0B4C098F0B5C099F09A6BE1
:100D78009B6B1200F66EF76AFF0E1200986F996B64
:100D88009A6B9B6B12000001B625B76F000EB6BFB9
:100D9800FF0E020112000E0D060EF324D96E040E8A
:100DA800F420DA6E12007D0E02011C25120015ECEB
:100DB8001AF075EC1BF078EC12F0E2EC1BF0010174
:100DC8009051B9EC1CF001018D0501E06BD183C194
:100DD80066F0390E79EC2FF097C1A2F0010E0001F0
:100DE800A2170101D89096350001A36F01018F3930
:100DF800D1D91D0E79EC2FF0A1C0A2F0030E00018D
:100E0800A21791C1A3F0010EA317D890A337D890C9
:100E1800A33701018E39BED91E0E79EC2FF00101DE
:100E28009351941141E093C1A5F094C1A6F000013B
:100E3800A76BA86B23D09FD97D0E0001C2EC06F0EA
:100E480034EC2AF010D097D9FA0E0001C2EC06F063
:100E580034EC2AF008D08FD9F40E0001986F010EF7
:100E6800AFD934EC2AF094C0A5F095C0A6F096C08E
:100E7800A7F097C0A8F00BD087D909D001018F51EE
:100E8800070AD9E00F0ADFE0010AE5E0F5D701011A
:100E98008E290001A26F05D0D890A833A733A633B6
:100EA800A533A22FF9D701D06FD9A5C066F0240EBB
:100EB80079EC2FF0A0C066F01F0E79EC2FF0260E0B
:100EC8008DEC2EF0A96F0C0E01018E1906E1070EAC
:100ED8008F1909E0080E8F1906E00B0E8E1906E12E
:100EE800070E8F1903E10001A98702D00001A99715
:100EF800A985A9C066F0260E79EC2FF0310E8DEC8D
:100F08002EF0A96FF80EA917030EA9135DD979EC75
:100F18002FF00A0E0001666F370E79EC2FF0120ED3
:100F28000101A61925E1070E8F1903E0080E8F1994
:100F380013E1310E8DEC2EF0A96FA99F45D979ECFC
:100F48002FF0400E0001666F2F0E79EC2FF0000194
:100F5800666B300E79EC2FF0090E01018F1908E14C
:100F6800310E8DEC2EF0A96FA98F2ED979EC2FF0C8
:100F7800330E8DEC2EF0A96FA99DA98195C1A2F021
:100F8800010EA217060EA36FD890A237A32FFCD785
:100F9800A251A913A9C066F0330E79EC2FF095C1C0
:100FA800A2F0010E0001A217D890A237D890A2355E
:100FB800FF0A1D0BA96FA9C066F03B0E79EC2FF054
:100FC800F3D8200E79EC2FF081C166F0210E79EC70
:100FD8002FF003D979EC2FF00001666B0E0E79EC37
:100FE8002FF00001666B0F0E79EC2FF0120E010145
:100FF800A61954E1090E8F1919E1800E755D130EBB
:101008007659610E7759330E785910E37505F70E46
:101018007659CB0E77593C0E785908E2C1D879EC4D
:101028002FF0640ECAD879EC2FF023D0090E8F194F
:101038001AE1800E755D1A0E7659700E7759180EE2
:10104800785911E3410E755DDD0E76594A0E7759D0
:101058001F0E785908E2A4D879EC2FF07F0EADD88E
:1010680079EC2FF006D0030E0001666F360E79EC8E
:101078002FF0090E01018F190AE1950508E199D8A9
:1010880079EC2FF0190EA3D879EC2FF007D091D86E
:1010980079EC2FF01D0E9BD879EC2FF016EC25F08B
:1010A80079EF2FF079C171F07AC172F07BC173F0DA
:1010B8007CC174F090EC27F07DC171F07EC172F0B4
:1010C8007FC173F080C174F0FEEC26F06DD8250E58
:1010D80079EC2FF081C166F0260E79EC2FF00A0E1C
:1010E8008DEC2EF0A96F9F0EA9170101A839E846CB
:1010F800E00B0001A913A9C066F00A0E79EC2FF0E5
:10110800C80E0001A96F0101915102E00001A989EF
:10111800A9C066F0300E79EC2FF00001A46B0ED058
:10112800840EA425D96EDA6A010EDA22DF50666FC2
:10113800A451280F79EC2FF00001A42B01018C5148
:101148000001A45DEDE301018C5108E08C05100954
:101158000001666F270E79EC2FF005D00001666B51
:10116800270E79EC2FF0000166693E0E79EC2FF01E
:1011780031D879EF2FF0A5C094F0A6C095F0A7C09C
:1011880096F0A8C097F012000001A56BA66BA76B9C
:10119800A86B1200F00B0001A311A211666F1200D8
:1011A800020E0001666F360C010182510001666F64
:1011B8001200650E0001666F3A0C0001666F3A0C6A
:1011C800996F9A6B9B6B1200A9C066F0310C0001F5
:1011D800666F3B0C000166693F0C0001666B0D0CE5
:1011E8000101656B646B626B606B616BCCC0A4F0D2
:1011F800CDC0A5F0100E0001A66F010EA76F000E5E
:10120800A86F010EA96F27EC1AF0D251D36FD46BD7
:101218000F0ED327000ED423040ED56FD435D43344
:10122800D333D52FFBD7D3510101636F635104E149
:10123800010E636F626B0AD0D2C0D3F00F0E0001AB
:10124800D317010ED8A4000E0101626F62052EE1CA
:10125800646B6351100DF350F00F656F18D0200EBA
:10126800010164251AD9100E6425E96EEA6A010E97
:10127800FAD8010165510001D025E96E000ED1218F
:10128800EA6EEF50D319DF6E0101642B652B6351B1
:10129800C1D801016551FDD8D351D55DD651800A19
:1012A800D76FD451800AD75940E2D9D70001D2511B
:1012B800D025D36F000ED121D46FD2510F0BD35D3F
:1012C8000101606F0001D451D8A0D4050101616FFC
:1012D800656BE8D865610CD065516025D96E000E44
:1012E8006121DA6E300EC4D8EA22DFCFEFFF09D0D1
:1012F800D9D8651904E1B0D8800EDF6E02D0ACD819
:10130800DF6A652B0F0E6565E4D7656B200E6525D2
:10131800C4D8000E6525E96EEA6A010EA4D8300E1D
:101328000101A6D889D86565F1D7500E0001646F10
:10133800010E656FF5EC21F018EC2EF00101656BDC
:1013480034D00101646B400E6425B1D8655162D870
:10135800D0C0D5F0D1C0D6F090D864510001D525C1
:10136800E96E000ED621EA6EEF50D76F500E0101DC
:1013780064256ED8EA22EF500001D719DF6E01010B
:10138800642B0F0E6465DFD7500E0001646F010EE9
:10139800656F5AD84CD8A0EC28F0500E906F010E0B
:1013A80072D87AEC2EF00101652B0001D369D4695B
:1013B800010163516ED861D865510001D76FD86BB0
:1013C800D551D75DD851800AD96FD651800AD959DD
:1013D800B8E30101656B400E652569D8200E6525C7
:1013E800E96EEA6A010E3FD8500E0101652530D832
:1013F80023D86565F0D7400E0001906F010E43D8E1
:101408007AEC2EF0CEC064F0CFC065F01DD80FD8AE
:10141800A0EF28F00001D36FD46BD33BD43BF00E80
:10142800D417D3510F0BD413F00ED317F00C676FEA
:10143800696B100E686F100CEA22EF500001D31987
:10144800DF6E0101652B0F0C400E666F010E120056
:10145800E96EEA6A010E1200300E6525D96EDA6A65
:10146800010EDA221200EA22EF500001D36F1200B7
:101478006525E96EEA6A010E1200D351D527D451C9
:10148800D62301011200916FCCC092F0CDC093F029
:1014980012000001D56FD66B1200D96EDA6A010E00
:1014A800DA2212000001D2510F0B01011200D96E8D
:1014B800DA6A010EDA221200DC6F100E0001E06F0A
:1014C800DF6BDD0E646F656B676B666B696B010EB6
:1014D800686F18EC2EF093EC17F018EC2EF002EC75
:1014E80022F0F5EC21F018EC2EF0DC0507E1DD51D7
:1014F8001F0B8009DD6F0201008104D0DD511F0B35
:101508004009DD6FFC0E0001DD17E30EDD17E00E6C
:1015180018D9DDC0DFFFE02BE00EF4D807EC22F08D
:10152800F0EC21F0A0EC28F0040EE027DE6B0201BD
:1015380002AD30D00001DE8F0201DF51EB5D29E200
:101548000001DE8D02010089D04BD12BA251D019A8
:10155800D11102E1EE6B1AD0A2510001DA6FDB6BF8
:101568000201D0510001DA5D0201D1510001DB59BD
:101578000EE20201EE2BEE51A35D0CE2EE6BDAEC0B
:1015880023F0000907E10201D06BD16B0001DE9D59
:1015980002010099020100A304D00001DE8B0201C0
:1015A80000930001DE990201A75104E0010169518D
:1015B8006A1104E1F00E0001DE1707D01DEC24F0DB
:1015C800DA6FDE19F00BDA19DE6FE00EBAD8DEC07A
:1015D800DFFFE02BE00E96D8060E666F020E676FEF
:1015E800696B020E686FA0EC28F0020EE02702017A
:1015F800A7510FE0010169516A110BE0E00E0001EB
:10160800646F040E656FE00E666F010E676FE4ECA1
:101618000FF0E00E000195D866C1DFFFE02B010155
:1016280069516A111CE0E00E00016CD867C166F0D0
:1016380068C167F069C168F06AC169F0A0EC28F078
:1016480067C1A4F068C1A5F069C1A6F061D883D8C4
:1016580069D88FEC16F001016951000119D0020117
:10166800A75117E0EF0E0001646F050E656FDF0EDE
:10167800666F676BE4EC0FF0EF0EA46F050EA56FB5
:10168800DFC0A6F045D863D84DD88FEC16F0DF51EF
:10169800E02706C26EF007C26FF008C270F009C2F8
:1016A80071F00001E051F00F726F490E736F000E78
:1016B800746BC0EC21F0E00E646F040E99EC03F03B
:1016C800100E686FA0EC28F036D8CE6F010ECF6FE1
:1016D800E00ED06F040ED16FE0C0D2F0F4EC08F049
:1016E800E00E10D844EC29F0F0EC21F0A0EC28F042
:1016F800040EE027F00EE0250201D46FD56BFF0E33
:10170800D523FF0CE025646F656B040E652312007A
:10171800A76B06C2A8F007C2A9F008C2AAF009C2BE
:10172800ABF01200AD6FE0C0AEF0E00EAF6F040E8C
:10173800B06FB16B1200220ECC6F020ECD6FAB0EE4
:101748001200E025D96EDA6A040EDA221200220E9F
:10175800AC6F020E1200320EAC6F020E12008F6BCD
:101768006C518F25D96EDA6A8F51750FE96EEA6A66
:10177800DFCFEFFF8F2B0F0E8F65F2D70A0E476E64
:10178800010E466E8F6BC4D8BCD800D98F65FBD7C5
:101798008F6BB7D8DF506D6F6E6B6D0E6D25F66E63
:1017A800FE0E6E21F76EF86A000EF822AAD808001D
:1017B800F5CFDFFF8F2B0F0E8F65EBD76AC064F074
:1017C8006BC065F01FEC1DF0470401E184D08F6BFE
:1017D80091D86D29D96EBDD86F6F93D8DF506F1926
:1017E8008D6F88D8CFD8B5D8A4D88E6F8D198B6F48
:1017F80081D86D29D96EADD89CD88C6F7F0E8D6538
:1018080008D01B0E8DC06DF0AFD8856F6E51866FF6
:1018180005D0D8908D35856F866B863785C08DF05D
:101828007F0E8C6508D01B0E8CC06DF09DD8876F1D
:101838006E51886F05D0D8908C35876F886B883744
:1018480087C08CF07F0E8E6508D01B0E8EC06DF0A1
:101858008BD8896F6E518A6F05D0D8908E35896F75
:101868008A6B8A3789C08EF04CD884D88B198D1929
:10187800DF6E40D86D29D96E52D86F296FD88B1971
:101888008C19DF6E37D8020E6D25D96E48D8020E36
:101898006F2564D88B198E19DF6E2CD873D83FD872
:1018A800020E6F255BD8716F8F516A25726F000E1B
:1018B8006B21736F7229E96E000E7321EA6EEF5087
:1018C800746F58D8741971198B19DF6E040E8F272D
:1018D8000F0E8F657DD7750E646FFDEC15F08F6B5D
:1018E80017D80FD853D88F65FBD74706475001E064
:1018F8004FD712008F516A256D6F000E6B216E6FE6
:1019080012008F516A25D96E000E6B21DA6E120013
:101918008F51750FD96EDA6ADF506D6F1200000EA5
:101928006E21DA6E8F516A256F6F000E6B21706F12
:1019380012006F6F8F516A25706F000E6B21716FE7
:10194800020E7025D96E000E7121DA6EDF506F1904
:101958001200000E6E21DA6EDF501200E96E000EE2
:101968007021EA6EEF5012006E6BD8906D376E37AB
:101978006D1912008F516A25E96E000E6B21EA6E0F
:10198800EF501200030E6D25D96E12006D51DF1A4B
:101998008F2B0F0C0001BF69C069C169C2690201C0
:1019A80003B1EBD002510F0B030A0EE1125105E10E
:1019B8000251F00B0409026F1200020E1219D8A48A
:1019C8001200E66A02EF1FF000B5A0EF2EF002A9A0
:1019D800120000A13BD0D951D75D25E3E3D8A0512F
:1019E8000001BB6F0201A1510001BC6FBD6BBE6B52
:1019F8000C0ED890E0D8E82EFCD7BBC064F0BCC071
:101A080065F0BDC066F0BEC067F07D0E99EC11F0C0
:101A180055EC25F093EC06F0E8514FEC2CF0020160
:101A2800E851FEEF25F0A7EC30F001016E516F117F
:101A3800D8B41200B2D8676B0500FA6A01016E517A
:101A4800FD6E6F51FE6EFF6AFA501200D851D65DD6
:101A580001E281D0A7D8010ECCEC26F0000913E1F1
:101A6800F00EB7EC25F0F0EC0EF0AA51AB1104E142
:101A78000201D82BBDEF25F0E2EC30F001016E51E8
:101A88006F11D8E11200C36B3AD00001C351B7EC13
:101A980021F033E1C35171EC06F0DDEC0EF02DE0DE
:101AA800C35171EC06F0DE50BF5DDE50C059DE5008
:101AB800C159DE50C25921E3C351AFEC21F0DF50C8
:101AC8000F0BBB6FBB510201DF5D17E30001C35170
:101AD800AFEC21F0DF380F0BBB6F0201DF510001C3
:101AE800BB5D0BE3C35171EC06F0DECFBFF0DECF78
:101AF800C0F0DECFC1F0DECFC2F00001C32BC3516E
:101B08000201ED5DC2E2BFC0BBF0C0C0BCF0C1C005
:101B1800BDF0C2C0BEF00C0ED89000014CD8E82E23
:101B2800FBD7000EBB25646F200EBC21656F030E2A
:101B3800BD21666F000EBE21676F7D0E99EC11F016
:101B480055EC25F093EC06F0EA514FEC2CF002012D
:101B5800EA51FEEF25F0E2EC30F029D8D8B41200B3
:101B68001CD8010E676F0500FA6E01016E51FD6EFB
:101B78006F51FE6EFF6AFA50120019D8D8B41200DD
:101B88000CD8020E676F0500FA6E01016E51FD6EEA
:101B98006F51FE6EFF6AFA5012000001646B656BAC
:101BA800666B12000251F00B0609026F1200010168
:101BB8006E516F111200BB37BC37BD37BE371200EC
:101BC8000A0EE126000EE2225268536854685568EE
:101BD800E1D8FE0EE36AFE0EE350B7EC21F055E1C2
:101BE800FE0EE35071EC06F0E4D84FE0FE0EE35031
:101BF80071EC06F0DE500201C85DDE50C959DE50B6
:101C0800CA59DE50CB591EE2FE0EE35071EC06F0C5
:101C1800D5D8C851525C4E6EC95153584F6ECA51EF
:101C28005458506ECB515558516EFE0EE35071EC1E
:101C380006F04EC0DEFF4FC0DEFF50C0DEFF51C0D1
:101C4800DEFF06D0FE0EE35071EC06F0CFEC1DF07F
:101C5800FE0EE35071EC06F0FA0EE3CF4BF0DE50C7
:101C68004B5CFB0EB4D8FC0EB2D8FD0EB0D80DE319
:101C7800FE0EE35071EC06F09CD807E0FE0EE35030
:101C880071EC06F09BD886D8E32AFE0EE32AE3CF50
:101C98004BF00F0E4B649FD7FF0EE3046CE1E1504D
:101CA800FA0F72D8DECFC8F2DECFC9F2DECFCAF2A1
:101CB800DECFCBF2FD0EE3500DE1FA0EE328FB0E6A
:101CC800E3CF4BF0FF0E4B5AFC0EE3CF4BF00F0E59
:101CD8004B5A18E3E150FA0F57D8DECF64F0DECF45
:101CE80065F0DECF66F0DECF67F07D0E000199EC7F
:101CF80011F055EC25F02EEC1EF00C0E3FD8E82E16
:101D0800FDD720D0FA0EE3CF52F0FB0EE3CF53F00D
:101D1800FC0EE3CF54F0FD0EE3CF55F00C0E2ED899
:101D2800E82EFDD752C064F053C065F054C066F089
:101D380055C067F07D0E000199EC11F055EC25F0C7
:101D48002EEC1EF0F60E52C0E3FFF70E53C0E3FF71
:101D5800F80E54C0E3FFF90E55C0E3FFE150F60F4B
:101D6800D96EE25037EC1EF0E9514FEC2CF002012D
:101D7800E951FEEC25F0F50E44EF1EF0D8905236EE
:101D88005336543655361200D96EE250DA6EFF0ECD
:101D9800DA22FF0CFA0E52C0E3FFFB0E53C0E3FF3A
:101DA800FC0E54C0E3FFFD0E55C0E3FFFF0EE36ACF
:101DB8001200DE50DE10DE10DE101200DECF52F010
:101DC800DECF53F0DECF54F0DECF55F01200E3CF74
:101DD8004BF0DE504B581200010198A506D0800E3A
:101DE8000001AB6F030EAA6F030C98C1ADF0030E90
:101DF8000001AD1705E0800EAB6F040EAA6F040C4E
:101E080001018D5109E1400E0001AC6505D0800E3D
:101E1800AB6F020EAA6F020C01019C519EEC30F0D0
:101E2800C7D8DBEC06F001018D051DE1ACC066F0FA
:101E3800220E79EC2FF00A0E8DEC2EF0B96FF00E11
:101E4800B917B987B9C066F00A0E79EC2FF0400EC1
:101E58000001666F79EC2FF0B0D879EC2FF096D8A6
:101E680075EC1BF007D0B2EC11F079EC2FF0A5D887
:101E780079EC2FF001018D5105E1ACC066F0000E40
:101E880079EC2FF048EC31F0800EFBEC30F00001DB
:101E9800BA6B0BD0BA51AA25D96E000EAB21DA6EF7
:101EA800DF50FBEC30F00001BA2BAC51BA5DF2E325
:101EB80046EC31F001019881E70E9817A5EC2DF05A
:101EC800030E75EC1BF00001716B726B0A0E736FD9
:101ED800746B01019C514FEC2CF001019C51FEECFC
:101EE80025F060D845E0A25102E156D80BE344D86A
:101EF80099EC11F055EC25F00C0EA7EC11F0E82E3A
:101F0800FCD71ED09FC1ADF0A0C1AEF0A1C1AFF00B
:101F1800A2C1B0F00C0ED8900001AD37AE37AF3784
:101F2800B037E82EF8D7ADC064F0AEC065F0AFC0EA
:101F380066F0B0C067F07D0E99EC11F055EC25F015
:101F480064C0B5F065C0B6F066C0B7F067C0B8F059
:101F5800B5C071F0B6C072F0B7C073F0B8C074F015
:101F680001019E514FEC2CF001019E51FEEC25F031
:101F78000001AA6BAB6B12009FC164F0A0C165F0B1
:101F8800A1C166F0A2C167F000017D0C8DC169F0A6
:101F9800010E00016A6F010C9F29FF0EA0590F0E58
:101FA800A159120001019F51A011A111A211120003
:101FB800000EA16F040EA06F040C0001666B410CAB
:101FC800E8D86F6F6E6BCAD0675101E1B4D06E511B
:101FD800D8D8DE2801E1AFD0FE0E686F69696E516E
:101FE800D0D8DF506A6F6B6B68516A2769516B23D1
:101FF800940E6A25F66EFF0E6B21F76E46EC24F000
:102008006FC06CF06D6B6C27000E6D23C2D86C5FCF
:10201800000E6D5B6DBF8FD06D5105E1100E6C5DCC
:1020280001E3A2D088D0A0D0A5D8030EDF6E6F2B15
:10203800A1D8DF6A6E51EBEC15F0DFA004D00001E7
:1020480099D8000EDB8000016E51EBEC15F0DFA291
:1020580003D090D8000EDB8200016E51EBEC15F036
:10206800DFA404D0000186D8000EDB8400016F2BAA
:1020780074D080D8050EDF6E6F2B7CD8DF6A6E5166
:10208800EBEC15F0DFA604D0000174D8000EDB805D
:1020980000016E51EBEC15F0DFA803D06BD8000EF1
:1020A800DB8200016E51EBEC15F0DFAADFD7DAD73F
:1020B80061D8060EDF6E6F2B5DD8E0C2DFFF6F2B95
:1020C8002AEC31F0800AA00F05E32AEC31F0800AEF
:1020D800600F04E300014ED8200E05D000014AD855
:1020E8002AEC31F03F0BDF6EC1D744D8070EDF6E04
:1020F8006F2B40D8DF6A6E51EBEC15F0DFAE04D0E1
:10210800000138D8000EDB8000016E51EBEC15F0B1
:10211800DFACACD72FD8000EDB82A8D70201DD696F
:10212800DE6B00016E512DD86F516425E96E000EEB
:10213800652134D89BD76E5124D8DF50020AEEE0CF
:10214800010A01E171D7070AECE0010A92E0030AEB
:10215800AFE0010ACAE00F0AE4E06E2B0201A751C2
:1021680000016E5D01E230D76651D96EDA6A6FC040
:10217800DFFF12006F516425D96E000E6521DA6EFB
:102188001200020DA80EF324D96E020EF420DA6EA6
:1021980012006651D96EDA6ADF501200EA6EDFCF9C
:1021A800EFFF1200010198A506D0800E0001AB6F69
:1021B800030EAA6F030C98C1ACF0030E0001AC1714
:1021C80005E0800EAB6F040EAA6F040CAA51AB1188
:1021D80005E1DCEC0FF0DBEC06F006D0AAC0A0F0BD
:1021E800ABC0A1F0DBEC06F001018D050EE1010E9C
:1021F8000001666F220E79EC2FF0B0D879EC2FF041
:10220800E1EC0FF079EC2FF011D0A9C166F0120EB5
:1022180079EC2FF0AAC166F0130E79EC2FF09ED856
:1022280079EC2FF0E1EC0FF079EC2FF001019883B5
:10223800E70E98170001AA51AB1106E115EC1AF048
:10224800050E75EC1BF031D001018D0509E1010E79
:102258000001696F000E6A6F060E75EC1BF025D041
:10226800000E12EC25F075EC1BF00001AA51AC6FC2
:10227800AB51AD6FAE6BAF6B0C0ED8906AD8E82E31
:10228800FCD758D852D855EC25F064C071F065C019
:1022980072F066C073F067C074F001019D514FEC95
:1022A8002CF001019D51FEEC25F0D6EC0FF039E041
:1022B800A25103E1D0EC0FF00AE3C0EC0FF035D8DF
:1022C80055EC25F00C0E3FD8E82EFDD712D09FC153
:1022D800ACF0A0C1ADF0A1C1AEF0A2C1AFF00C0E40
:1022E800D890000136D8E82EFBD724D81ED855EC54
:1022F80025F064C0B0F065C0B1F066C0B2F067C048
:10230800B3F0B0C071F0B1C072F0B2C073F0B3C036
:1023180074F001019E514FEC2CF001019E51FEEC2E
:1023280025F00001AA6BAB6B1200686F696B6A6BD2
:102338006B6B1200ACC064F0ADC065F0AEC066F067
:10234800AFC067F07D0CD89064376537663767375C
:102358001200AC37AD37AE37AF3712000001666BED
:10236800400C7FC075F180C076F181C077F182C0E2
:1023780078F1A80E0101796F610E7A6F7B6B7C6B27
:10238800500E7D6FC30E7E6F7F6B806B010E8D6F5D
:10239800070E8F6F010E906F966F976B826B080E0A
:1023A800816F0C0E8E6F010E916F926B956BC10E43
:1023B800846F940E856FC10E866F030E8C6F340E7A
:1023C800836F986B996B7DC09AF17EC09BF1936B7C
:1023D800946B800EA76F980E9F6F3A0EA06FA16B3B
:1023E800A26B020EA86F0B0EA96F120EAA6FA46B38
:1023F800A56BA35123E112EC2BF001019C6F12ECA9
:102408002BF001019D6F12EC2BF001019E6F780EED
:102418000001646F590E656F666B01019D51EDEC0B
:102428002DF0D60E646F580E656F666B01019E51D4
:10243800EDEC2DF0010E0101A36F0BD09C519EEC29
:1024480030F001019D519EEC30F001019E519EEC4F
:1024580030F07EEC2DF0000E0001696F010E6A6FFE
:1024680075EC1BF041D8E2EC1BF0420EEBEC08F0E7
:1024780079EC2FF03B0E8DEC2EF0836F83BBFAD7EF
:10248800230E666F0C0E79EC2FF01E0E0001666F9E
:102498000D0E79EC2FF0AA0E0001666F1F0E79EC75
:1024A8002FF08F0E0001666F350E79EC2FF00001CA
:1024B8006669320E79EC2FF0400E0001666F310E1E
:1024C80079EC2FF0010E0001696F6A6F000E75EC50
:1024D8001BF000016669230E79EC2FF0420E8DEC9B
:1024E8002EF00101A66F120075C171F076C172F06D
:1024F80077C173F078C174F01200AD6BA8C0AEF06C
:10250800A9C0AFF0A5D00201A751EBEC15F0DF9000
:10251800A751EBEC15F0DF92A751EBEC15F0DF9427
:10252800A751EBEC15F0DF96A751EBEC15F0DF980F
:10253800A751EBEC15F0DF9AA751EBEC15F0DF9CF7
:10254800A751EBEC15F0DF9E97D8A751020DA80E06
:10255800F324E96E020EF420D2EC10F05BD0AEC08A
:1025680064F0AFC065F0C1EC2DF064C0AEF065C09A
:10257800AFF00201A751C5EC10F0DF685FD0AEC024
:1025880071F0AFC072F05DEC15F071C0AEF072C0C2
:10259800AFF054D0AEC064F0AFC065F099EC29F04C
:1025A80064C0AEF065C0AFF049D0AEC0A0F0AFC017
:1025B800A1F031EC18F0A0C0AEF0A1C0AFF03ED051
:1025C800AEC064F0AFC065F0DDEC30F064C0AEF0D2
:1025D80065C0AFF033D0AEC0A0F0AFC0A1F045ECFD
:1025E80013F0A0C0AEF0A1C0AFF028D0AEC06BF021
:1025F800AFC06CF0B2EC2EF06BC0AEF06CC0AFF0B8
:102608001DD0010EAD6FAA51A825AE6F000EA921ED
:10261800AF6FAFD731D80001AE4BAF2BDF50020AF6
:102628009EE0010AACE0070AB5E0010ABEE0030A31
:10263800C7E0010AD0E00F0AD9E0E3D70201A751A9
:10264800C5EC10F0DE2804E0100EA76101D0A72B1E
:102658000001AA51A825AB6F000EA921AC6FAB51A0
:10266800AE5DAC51AF5903E2AD5101E14CD7AEC0FC
:10267800A8F0AFC0A9F01200AEC0D9FFAFC0DAFF12
:102688001200AFD8DF50A76FA04BA12BAAD8FF0E1E
:10269800DE14A36FFF0EDE14A46FFF0EDE14A56F09
:1026A800000EDE14A66FA3C094F0A4C095F0A5C0D8
:1026B80096F0A6C097F0640EC2EC06F034EC2AF04F
:1026C80094C0A3F095C0A4F096C0A5F097C0A6F05A
:1026D800030EA027000EA12384D8DF50A26FA04BC1
:1026E800A12B646BA7516AEC2FF000091EE1A3C06F
:1026F80064F0A4C065F0A5C066F0A6C067F0BFECA2
:1027080027F0000902E072D805E10201A751EBECBD
:1027180015F0DF8E0001A251D6EC2CF0000905E17E
:102728000201A751EBEC15F0DF8C0201A751EBEC8D
:1027380015F0DFAE40D0A751EBEC15F0DFAC3BD085
:10274800100EDA6119D0000151D811E039D854ECD3
:102758002EF0A2C064F0A7516CEC21F03BD8ABEC92
:102768002DF0010E646FA75184EC1DF022D0686B28
:10277800A75150EC2DF01DD0000138D815E020D815
:10278800100F54EC2EF0A2C064F0A751100F6CEC9F
:1027980021F020D8100FABEC2DF0010E646FA7517B
:1027A800100F84EC1DF005D0686BA751100F50EC8A
:1027B8002DF002010387A0C0A0F0A1C0A1F0120073
:1027C800A3C064F0A4C065F0A5C066F0A6C067F019
:1027D800A7511200010E0001656F2E0E646FA751FC
:1027E8001200A0C0D9FFA1C0DAFF1200A351A411A2
:1027F800A511A61112000001AB6F0201F00502E15C
:10280800E7EC29F0340E0201F46FF451F6EC30F0E5
:10281800020195D8DD69DE6B8DD8D46BD56B94D861
:1028280098D8D26BD36BDC6B010EDB6FD06BD16B9E
:10283800EE6BEF6B7FD8039582D8006B016B070EA8
:10284800D76FD66B010ED96FD86FE069ABC0A4F211
:10285800126B100EED6F0001AB5110E1FF0E58D84E
:10286800B5EC11F0C9EC2AF002011C6B080E186FC8
:10287800E60E196FD30E1A6F330E19D0FF0E7D6F47
:10288800050E7E6F200E7F6FA20E806FD30E816FB4
:10289800190E826FB5EC11F01BEC28F002011C6BCD
:1028A800280E186F760E196FE80E1A6F190E1B6F27
:1028B800010EE16FDF6BC9EC25F00201A56BA66B79
:1028C8001D0E0001646F020EE9EC2AF0690E686FB4
:1028D80018EC2EF029D8070E976FD00E966F130EAE
:1028E800996F880E986F170E9B6F700E9A6F070E70
:1028F800A16FD00EA06F200EA36F400EA26F9D6F28
:102908009C6B9F6F9E6B0001A16BA06BB4EF18F0DE
:102918007D6F050E7E6FA00E7F6F270E806FBE0E37
:10292800816F330E826F330C030E0201956FE80E30
:10293800946FE80CC86BC96BCA6BCB6B1200026B47
:10294800036B046B056B12000A6B0B6B0C6B0D6B46
:102958001200066B076B086B096B12000001A46F6D
:10296800210EA419D8A41200030EA96FAA6BA56B97
:10297800A66BA76BA86BA50E646F656BAA51030DB8
:10298800A0C0A2F0A1C0A3F0F350A227F450A32343
:102998008BD8A251666F676B17EC28F0A0EC28F073
:1029A800A5C094F0A6C095F0A7C096F0A8C097F06F
:1029B800640EC2EC06F034EC2AF094C0A5F095C081
:1029C800A6F096C0A7F097C0A8F0A551A611A71128
:1029D800A81141E0A5C064F0A6C065F0A7C066F0E4
:1029E800A8C067F0BFEC27F000093AE156D8F350C9
:1029F8003FD8A5C0DEFFA6C0DEFFA7C0DEFFA8C087
:102A0800DEFFAA510E0D000E3FD832D8DF500F0B53
:102A18005009DF6E0001AA510E0D000E35D828D8D6
:102A2800F00EDF163AD8060EA227000EA323F350A5
:102A38001FD8E70EDE6E030EDD6E2FD835D8F350A3
:102A480017D8DF68010E686FAA51A92550EC2DF040
:102A58000201038705D0686BAA51A92550EC2DF017
:102A68000001AA2B040EAA6582D702010387040C71
:102A7800A227F450A323A9510E0DF350A225D96E15
:102A8800F450A321DA6E1200A26F040EA36F050E94
:102A9800A227000EA323F3501200AA510E0D000E18
:102AA800A26F040EA36F12000D0EA227000EA3231F
:102AB800000C9AD8DF500F0B766F96D8DF50736FE3
:102AC80073390F0B796F714B722B8ED8DECF74F080
:102AD800DDCF75F0020E7127000E722371C077F0FA
:102AE80072C078F0714B722B020102AD62D077D8B8
:102AF8000001DF38070B09EC30F000090CE174C065
:102B080064F075C065F067EC2DF0000904E102017E
:102B1800A7515DD8DF80000179516FEC30F00009D2
:102B28000CE10201EB510001795D07E379510201E3
:102B3800EC5D03E3A7514BD8DF8200017651E8EC46
:102B48002EF0000904E10201A75141D8DF840201F7
:102B5800A7513DD8DFA436D0A75139D8DFA232D04B
:102B6800A75135D8DFA02ED074C06EF075C06FF0B5
:102B780036D80001DF38070B706F4FEC30F0765114
:102B880008EC31F002010389000179510CEC31F0B5
:102B980026D80001DF500F0B03E10201D66B07D0E6
:102BA8001ED8DF500F0B736F73050201D66F038BAE
:102BB80009D0A7510CD8DF90A75109D8DF92A751A7
:102BC80006D8DF9471C071F072C072F01200020D65
:102BD800A90EF324D96E020EF420DA6E120077C023
:102BE800D9FF78C0DAFF120071C0D9FF72C0DAFFCE
:102BF80012006451D96EDA6A0D0E60D8675186D812
:102C08000E0E5CD8D92A675181D80F0E57D8020EFC
:102C1800D92667517BD80C0E51D8030ED926675197
:102C280075D84650DF1A7F0E46640CD01B0E46C07E
:102C380065F0666BD890653766376519686F6651B9
:102C4800696F05D0D8904634686F696B693768C07A
:102C580046F06451D96EDA6A53D8040E43D8D92A9B
:102C68004FD8050E3FD8020E44D8060E3BD8030EA7
:102C780040D8070E37D8040E3CD8080E33D8050EB6
:102C880038D8090E2FD8060E34D80A0E2BD8070EBE
:102C980030D80B0E27D8080E2CD80C0E23D8090EC6
:102CA80028D80D0E1FD80A0E24D80E0E1BD80B0ECE
:102CB80020D80F0ED9266551DF1A1200D926DF5009
:102CC800656F666B6D0E6525F66EFE0E6621F76EF6
:102CD800F86A000EF8220800F5CF67F06451D96E43
:102CE800DA6A1200D9266551DF1A6451D96EDA6A98
:102CF8001200D926DF50656F6451D96EDA6A120066
:102D0800DF50656F6451D96EDA6A1200DF1A6451B8
:102D1800D96EDA6A1200B86BB96BA6390F0BB76FA8
:102D2800010EB86F31D05BD8C0EC21F068D87AECCE
:102D38002EF0B96B75D8B851B26FB36BB23BB33BD9
:102D4800F00EB317B2510F0BB313F00EB217A4C0A5
:102D5800B4F0A5C0B5F0B251B427B351B523B951F9
:102D6800B427000EB523F00EB425E96EFF0EB52189
:102D7800EA6EEF50B66F4CD8B619DF6EAE2BB92B92
:102D88000F0EB965D7D7B82BB851B75DCCE24FD87D
:102D9800D8B40F0C24D8C0EC21F031D87AEC2EF03E
:102DA800B96B18D03DD8B751100DA4C0B2F0A5C06A
:102DB800B3F0F350B227F450B323B951B225E96EFA
:102DC800000EB321EA6EEF50B46F22D8B419DF6E4B
:102DD800AE2BB92B2CD8B251B95DE4E31200A8C0D0
:102DE8006EF0A9C06FF0AAC070F0ABC071F0B8C0A7
:102DF80072F0010E736FB1C074F0A7511200AB0EE0
:102E0800906F010E916FACC092F0ADC093F01200BC
:102E1800AB0EB925E96EEA6A010EEA22EF501200FC
:102E2800AE51AF25D96E000EB021DA6E1200A6C0E1
:102E3800B2F00F0EB2170F0C0001EA6B70D818EC45
:102E48002EF01F0EE917FC0EE917E30EE91724EE22
:102E5800E0F0E9C0DFFFEA2BEB6BEB515908D96EC4
:102E6800000ED8A0E82A020842D8EB65F6D7080E6B
:102E7800EA27EB6BEB516108D96E000ED8A0E82A5F
:102E8800020835D8EB65F6D7080EEA27A869A769BE
:102E9800F9EC2EF0A7C0D2F2A8C0D3F2E00EEA25D2
:102EA80039D84CD8A0EC28F0020EEA27420EDA6F87
:102EB800020EDB6FE00EDC6F040EDD6FEAC0DEF0A1
:102EC8001FEC29F0DAC0E5F0DBC0E6F0DCC0E7F083
:102ED800DDC0E8F0E00EEA251DD8E50E666F676BE9
:102EE80029D8A0EC28F0040EEA27EA511200DA6E7D
:102EF800E00EE36F040EE46FEA51E327000EE423CB
:102F0800EB51E325E96E000EE421EA6EDFCFEFFF17
:102F1800EB2B070C646F656B040E65231200E00E43
:102F2800646F040E656F676B666B010E696F0F0E39
:102F3800686F0F0C696B040E686F040CD20E666F15
:102F4800020E676F696B020E686F020C050EE126B0
:102F5800000EE222020103A103A51FD0FF0EE36ABF
:102F680009D0FF0EE350C5EC10F0020EDE1808E0A1
:102F7800FF0EE32AFF0EE3CF4BF0A7514B5CF1E3C2
:102F8800FF0EE350A71909E1A751C5EC10F0020E96
:102F9800DF6E100EA76101D0A72B03A531D0CF514A
:102FA80002E155D80DE349D899EC11F055EC25F01C
:102FB8002EEC1EF00C0EC2EC0EF0E82EFCD707D05B
:102FC80022D899EC11F055EC25F02EEC1EF0FB0EF2
:102FD80052C0E3FFFC0E53C0E3FFFD0E54C0E3FFF5
:102FE800FE0E55C0E3FFE150FB0FD96EE25037ECFF
:102FF8001EF0E7514FEC2CF00201E751FEEC25F0F2
:10300800FA0E44EF1EF0CCC252F0CDC253F0CEC23D
:1030180054F0CFC255F00C0ED89052365336543671
:103028005536E82EF9D752C064F053C065F054C045
:1030380066F055C067F000017D0CCCC264F0CDC2CB
:1030480065F0CEC266F0CFC267F000017D0CCC29D6
:10305800FF0ECD590F0ECE5912007DD8DF50A66F46
:10306800A04BA12B78D8FF0EDE14A26FFF0EDE1442
:10307800A36FFF0EDE14A46F000EDE14A56FA2C0AE
:1030880094F0A3C095F0A4C096F0A5C097F0640E84
:10309800C2EC06F034EC2AF094C0A2F095C0A3F07C
:1030A80096C0A4F097C0A5F0030EA027000EA12398
:1030B800A2C064F0A3C065F0A4C066F0A5C067F024
:1030C800BFEC27F0000905E10201A751EBEC15F070
:1030D800DF860001A6510F0B6FEC30F0000905E107
:1030E8000201A751EBEC15F0DF880001A639070BA8
:1030F80065EC30F0000905E10201A751EBEC15F091
:10310800DF8A0201A751EBEC15F0DFA81FD0A75109
:10311800EBEC15F0DFA61AD0A751EBEC15F0DFAAFF
:1031280015D00001A639070B0201EF6FA2C064F0A9
:10313800A3C065F0A4C066F0A5C067F00001A65161
:103148000F0B686F44EC30F00201038FA0C0A0F0B1
:10315800A1C0A1F01200A0C0D9FFA1C0DAFF1200DF
:10316800A0C094F0A1C095F0966B976BE80E986F8D
:10317800030EE4EC08F034EC2AF094C0CCF295C0CD
:10318800CDF296C0CEF297C0CFF2A051A1111DE1A9
:103198000201E7519EEC30F0020103950001AA6B91
:1031A8000ED0AA51C5EC10F0020EDE1806E1AA51A5
:1031B800C5EC10F0DF680201A7070001AA2B020185
:1031C800A7510001AA5DEDE312000201038502A9DF
:1031D8001200CF5103E12BEC18F00CE321EC18F0AE
:1031E80099EC11F055EC25F00C0EA7EC11F0E82E37
:1031F800FCD71ED0CCC2A2F0CDC2A3F0CEC2A4F0A0
:10320800CFC2A5F00C0ED8900001A237A337A4377F
:10321800A537E82EF8D7A2C064F0A3C065F0A4C013
:1032280066F0A5C067F07D0E99EC11F055EC25F01D
:1032380064C0A6F065C0A7F066C0A8F067C0A9F092
:10324800A6C071F0A7C072F0A8C073F0A9C074F04E
:103258000201E7514FEC2CF00201E751FEEF25F097
:10326800E652020103B176D0D951D75D52E314EC8E
:103278002CF0556E0D0E5526FF0E55C0E3FFE3509A
:103288004B6E4C6A0201D4514B5CD5514C5831E31A
:10329800010ECCEC26F0000928E1F00EB7EC25F081
:1032A800F0EC0EF0C2EC25F020E10201BDEC25F0B7
:1032B800D92BD9B1D3EF2CF0DF5102E1D3EF2CF0A9
:1032C800D9514B6E4C6AD751546E556A542A000E28
:1032D80055224B50541805E14C50551802E1D3EFD4
:1032E8002CF0DAEC23F0D3EF2CF0CCEC28F0D3EF71
:1032F8002CF0A7EC30F001016E516F1102E1D3EF11
:103308002CF0D1EC0DF0040E676F02D8D3EF2CF03F
:1033180017D0D951D75D02E3D3EF2CF003B1D3EF27
:103328002CF0A7EC30F001016E516F1102E1D3EFE0
:103338002CF0000ED1EC0DF0676B02D8D3EF2CF017
:103348000500FA6E01016E51FD6E6F51FE6EFF6A47
:10335800FA501200A7EC30F0D3EF2CF03F0E8DECB2
:103368002EF0E06FE0A712005CD875EC1BF00101AD
:1033780098919E519EEC30F0010198B912009C5131
:10338800F0EC2CF08E5102E151D80DE301019C5173
:10339800F0EC2CF00D0E01D050D8E82EFDD72DD82A
:1033A80034EC2AF00CD001019C51F0EC2CF025D81B
:1033B80034EC2AF00D0E01D02ED8E82EFDD794C09B
:1033C800DCF095C0DDF096C0DEF097C0DFF0DC5190
:1033D8002008D86F4E0EDD55D96F000EDE55DA6F16
:1033E800000EDF55DB6F01019C519EEC30F0D8C018
:1033F800B4F0D9C0B5F075EF04F08BC094F08CC070
:1034080095F08DC096F08EC097F07D0E986F996BF1
:103418009A6B9B6B7D0CD890973396339533943386
:1034280012008DC169F0000E6A6F000C1F0E8B5DD3
:10343800AC0E8C59DF0E8D591200D8908E338D3317
:103448008C338B33120021EEBDF000EEABF00F0E83
:10345800DBCFEBFFE806FCE2BB0E646F656BF5ECB7
:1034680021F018EC2EF0BB0E906F916BA4C092F077
:10347800A5C093F07AEC2EF0BBBF04D04BD8A4ECD7
:103488002AF016D047D8A4EC2AF0CB6BCB51AB0F5F
:10349800D96EDA6ADF50AA6FCB51A625D96E000E15
:1034A800A721DA6EAA51DF1ACB2B0F0ECB65EED708
:1034B800A6C0D9FFA7C0DAFFDFBE03D020D8A4EF8B
:1034C8002AF01DD8A4EC2AF0CB6BCB51A825D96ED5
:1034D800000EA921DA6ECB51AB0FE96EEA6AEF5004
:1034E800AA6FCB51A825E96E000EA921EA6EEF500C
:1034F800AA19DF6ECB2B0F0ECB65E7D70F0CA6C032
:1035080064F0A7C065F0A8C066F0A9C067F0100E07
:10351800686F100CBB0E646F656BA6C066F0A7C021
:1035280067F0100E686F100C7D6A7C6A796A7E6A93
:103538007A6A7F6A7B6A806A85688668FE0E816E11
:10354800DF0E876E82680F0E886EBF0E836E970E31
:10355800846EE00E0E019A6F770EA76FAF69BC6993
:10356800B4699269A669B369AE699969BB699169D9
:10357800A1690F0EC06FAD6BB26B906BBA6B986B95
:10358800BF6BA06BA56B939994899589A80E0001D0
:10359800646F620E656FC9EC30F00E012989000E68
:1035A800F2BE010E0001666FF29E27D8EF91F1512D
:1035B800C00B0909F16FF351C00B0B09F36F1C0E17
:1035C8000E016F6F0D01F051C00B0809F06FF25139
:1035D800C00B0A09F26F0C0E0E01686F1B0E706F9C
:1035E8001D51C00B1F091D6F08D8EF81000166A18E
:1035F80002D0F28EAA0CF29E1200550E0D01EF6F4A
:10360800AA0EEF6FAA0C0001986999699A699B69DB
:103618009C6B3AD000019C51B7EC21F033E19C51EE
:1036280071EC06F0DDEC0EF02DE09C5171EC06F02B
:10363800DE50985DDE509959DE509A59DE509B59FC
:1036480021E39C51AFEC21F0DF500F0B946F9451A4
:103658000201DF5D17E300019C51AFEC21F0DF3878
:103668000F0B946F0201DF510001945D0BE39C5135
:1036780071EC06F0DECF98F0DECF99F0DECF9AF04D
:10368800DECF9BF000019C2B9C510201ED5DC2E254
:10369800D6EC0DF098C094F099C095F09AC096F0C9
:1036A8009BC097F00C0ED890000194379537963749
:1036B8009737E82EF8D794C064F095C065F096C0A7
:1036C80066F097C067F07D0E99EC11F055EC25F087
:1036D80093EC06F0E6514FEC2CF00201E651FEEFB8
:1036E80025F06E6F0001695108E1060E6E19D8B415
:1036F8001200070E6E1901E11200070E6E17010E77
:1037080069178DEC2EF06F6F6FAF03D0010E6B6FE2
:1037180001D06B6B6F51070B6D6F6B51691916E018
:103728006D5108E06F51F80B666F010E79EC2FF0C0
:1037380000016D6B695103E1780E6F1704D06F516A
:10374800780B80096F6F37D879EC2FF000016D5135
:103758006E19D8B412006E5112E06A0510E1410EDC
:103768008DEC2EF06C6F695103E1300E6C1302D0B2
:10377800CF0E6C176CC066F0410E79EC2FF0F80E86
:1037880000016F176E516F1316D879EC2FF00001F6
:103798006A05D8A412006E5105E033EC31F0000937
:1037A800FCE0120002D803EF2EF0010E646F656B87
:1037B800666B676B010C6FC066F0010C71C064F03A
:1037C80072C065F073C066F074C067F0090E00013E
:1037D8005BD855EC25F064C079F065C07AF066C016
:1037E8007BF067C07CF071C064F072C065F073C094
:1037F80066F074C067F0090E686F3D0E696F6A6BFA
:103808006B6B2FEC27F064C075F065C076F066C06E
:1038180077F067C078F07BC07CF07AC07BF079C025
:103828007AF0796B77C078F076C077F075C076F06B
:10383800756B75C064F076C065F077C066F078C0C7
:1038480067F0090E21D855EC25F064C075F065C005
:1038580076F066C077F067C078F0755179277651B1
:103868007A2377517B2378517C237BC066F0060E40
:1038780079EC2FF07AC066F0070E79EC2FF079C05A
:1038880066F0080E79EF2FF0686F3D0E696F6A6B6E
:103898006B6B3D0C5AEC2FF001C03EF002C03FF0BC
:1038A80049041EE1496A59D8D8A00D060D500E6E7C
:1038B8002DD8136E39501020146E3A501120156E01
:1038C8003B501220166E000E1324306E000E14208A
:1038D800316E010E1520326E000E162026D80DD03E
:1038E8003CD80E6A13D8306E39501020316E3A50D9
:1038F8001120326E3B50122026D830C007F031C05C
:1039080008F032C009F033C00AF0120034500B5CE2
:103918000F6E35500C58106E36500D58116E3750CA
:103928000E58126E38500F241200336E3EC034F019
:103938003FC035F0366A376A386A396A3A6A3B6A8C
:10394800446A456A1200336E3050342631503522AD
:103958003250362233503722120044503E5C0B6EF0
:1039680045503F580C6E0D6A120000016A6F010144
:10397800925125E100016A51800A830F02E2FD0E8F
:103988006A6F6A51800A700F02E30F0E6A6F4D0E5C
:103998008DEC2EF0696FF80E6917698549D879ECB6
:1039A8002FF000016AAF05D0030E6A276A5120097B
:1039B80002D06A517009666F090E79EF2FF0000185
:1039C8006A51800A7E0F02E2020E6A6F6A51800A0B
:1039D8006C0F02E3140E05D06A51800A6E0F02E3E1
:1039E800110E6A6F0B0E8DEC2EF0686F4D0E8DEC7C
:1039F8002EF0696FF80E6917140E6A1906E1070EA2
:103A080069130F0E6A6F689B04D06985FE0E6A27DA
:103A1800688B0ED879EC2FF000016A518009666F27
:103A2800090E79EC2FF068C066F00B0E79EF2FF0D5
:103A380069C066F04D0C20EE01F05DD8DF50666F6E
:103A480020EE05F058D800EE01F04ED820EE09F02F
:103A580052D800EE05F048D820EE0DF04CD800EE14
:103A680009F042D820EE0DF046D866C0DFFF20EE00
:103A780002F041D8DF50666F20EE0AF03CD800EE25
:103A880002F032D820EE0AF036D866C0DFFF20EE0A
:103A98000EF031D8DF50666F20EE06F02CD800EE1D
:103AA8000EF022D820EE06F026D866C0DFFF20EE02
:103AB80003F021D8DF50666F20EE0FF01CD800EE1F
:103AC80003F012D820EE0BF016D800EE0FF00CD849
:103AD80020EE07F010D800EE0BF006D820EE07F025
:103AE8000AD866C0DFFF12006451E9266551EA2250
:103AF800DFCFEFFF12006451D9266551DA22120098
:103B0800666F000166510E0D3FD864C0DFFF665135
:103B18000E0D3AD8DF5004E1665171EC06F03BD83F
:103B2800676B26D06751AFEC21F0DF500F0B000117
:103B3800656F0201EB510001655D08E26751B7EC62
:103B480021F004E16751AFEC21F030D80001675152
:103B5800AFEC21F035D8EC6109D000016751B7EC22
:103B680021F004E16751AFEC21F025D80001672B63
:103B78000201ED510001675DD5E30201DF51EC5D03
:103B88000FE2ECC2DFF20CD0040EF324D96E040E5F
:103B9800F420DA6E1200DE6ADE6ADE6ADD6A12007E
:103BA800EB51DF5DD8A0EBC2DFF21200DF500F0B44
:103BB8000201EB6F1200DF380F0B0201EC6F1200ED
:103BC800DF380F0B02011200E652E652E652E652C7
:103BD800020100950289F00E0217D06BD16BEE6BD3
:103BE80003A527D0CF5103E12BEC18F00DE321EC0E
:103BF80018F099EC11F055EC25F02CD80C0EC2EC0D
:103C08000EF0E82EFCD707D007EC18F099EC11F06D
:103C180055EC25F01FD856EC22F0E150FC0FD96E78
:103C2800E25021D8E7514FEC2CF00201E751FEECAD
:103C380025F00101705171110BE001D809D0050080
:103C4800FA6E7051FD6E7151FE6EFF6AFA50010CEA
:103C5800FB0E16D064C052F065C053F066C054F035
:103C680067C055F01200DA6EFF0EDA22DECF71F06F
:103C7800DECF72F0DECF73F0DECF74F00201FF0CFE
:103C8800E126FF0EE222FF0C1AEC2FF0F28EF28CE6
:103C98007980A40E0001AC6F620EAD6F4E0EAE6F50
:103CA800620EAF6F0EEC2AF0DD0E00016E6F010E92
:103CB8006F6F2DEC2EF0CD0E00016E6F010E6F6F41
:103CC80022EC2DF0400E0001646F660E656F000E49
:103CD800666B676BD9EC2FF0010E94EC23F003D0E0
:103CE800F6EC2BF0799001017251FAE00001F56BC6
:103CF800050EF46FF6EC2BF00001F44BF52BF5BF35
:103D08000BD0F55103E10B0EF45D06E3F46BF56B94
:103D180034EC2BF00AEC2FF00001F66BF76B060E73
:103D2800F36F300EE82EFED7F32FFCD700D000013A
:103D3800F64BF72BF7BFF3D7E80EF65D030EF759EE
:103D4800D9E2EDD70001866987698869896917EC26
:103D580021F06AC082F06BC083F06CC084F06DC043
:103D680085F08A6B35D08A5184EC23F0DE042FE18C
:103D78008A513CD8DE50825DDE508359DE5084592A
:103D8800DE50855905E38A5131D8CFEC1DF01FD09C
:103D98008A512CD88251DE5E8351DE5A8451DE5A14
:103DA8008551DE5A8A5122D88651DE5C8751DE5809
:103DB8008851DE588951DE580AE28A5117D8DECF79
:103DC80086F0DECF87F0DECF88F0DECF89F08A2B51
:103DD8000101735100018A5DC6E386C07AF087C08D
:103DE8007BF088C07CF089C07DF01200080D000EC1
:103DF800F324D96E030EF420DA6E1200020103B127
:103E080045D02DEC31F0556E55B23CD0020102512F
:103E1800F00B0509026F15EC30F030EC31F085EC51
:103E280027F067EC2EF00201125127E1850E1C25C0
:103E380037D89DEC06F038D8D6EC10F0AAC04BF075
:103E4800ABC04CF04B504C1029E0A7EC30F0E2EC42
:103E580030F001016E516F1121E0000ED1EC0DF030
:103E6800676B01D81BD00500FA6E01016E51FD6E1B
:103E78006F51FE6EFF6AFA50120051EC04F060ECCC
:103E880027F00CD0010E0201F16F08D000A502D076
:103E980000950299E2EC30F0A7EC30F0E552120000
:103EA800F66EF76AFF0E1200F5500001AA6FAB6BB1
:103EB8001200120E8DEC2EF0ED6F700E666F120E62
:103EC80079EC2FF00001ED51500B500AD8A41200E4
:103ED80001019E519EEC30F01C0E8DEC2EF0EE6F21
:103EE8000101915104E00001EDABEEAD31D0130EAC
:103EF8008DEC2EF00101996FF1EC08F079EC2FF0C0
:103F080048EC31F0000EFBEC30F00001EE6B08D00D
:103F1800EE51F4EC22F0FBEC30F0DF6E0001EE2BFA
:103F2800010199510001EE5DF3E346EC31F0010126
:103F38009885190E8DEC2EF00101A76F040E000173
:103F4800646F0101A751F6EC28F00101A76F02D0B8
:103F580001019887A5EC2DF075EC1BF001019893F1
:103F6800FBEC22F045EF00F0E76F020103A102BF6E
:103F7800120002A912000001E15103E1E45101E03D
:103F8800120014EC2CF0E56FE451E55D01E212003B
:103F98000201062908E1072906E1082904E109299F
:103FA80002E10483120002510F0B03E0125101E1F8
:103FB8001200010ECCEC26F0E66FE65101E012008B
:103FC800020E0201121902E115EC30F0E1C066F1AF
:103FD800E2C067F1E3C068F1E4C069F101016A6B0E
:103FE8000001E75160EC0AF0F00E0001B7EC25F093
:103FF800F0EC0EF0AA51AB11D8A412000201062B66
:10400800000E0723082309230001E70502E1020146
:1040180000810201008BBDEF25F00001B26FB16B8A
:10402800B2C0A7F0A86BF9EC2EF0A729B36FB3C004
:10403800B0F03DD0B46B30D0B451B7EC21F02AE1E8
:10404800B45171EC06F0DDEC0EF024E1B451AFECA4
:1040580021F0DF500F0B0001AC6FAC510201DF5DA6
:1040680019E30001B451AFEC21F0DF380F0BAC6F4E
:104078000201DF510001AC5D0DE3A9510AE1B45121
:104088000E0D0C0EF324D96E040EF420DA6EDE0445
:1040980001E1B3070001B42BB251B45D02E2B351A0
:1040A800CBE1B051B31903E1090EB16F02D0B3519E
:1040B800C1E1B45107E0B405AAC0D9FFABC0DAFF2B
:1040C800DF6E02D0090EB16FB15112002368246867
:1040D800256826684EEC1CF007C01FF008C020F0C9
:1040E80009C021F00AC022F0276A3AD0275084EC90
:1040F80023F0DE0434E12750FAEC1EF0DE501F5C9A
:10410800DE502058DE502158DE50225806E3275052
:10411800FAEC1EF0CFEC1DF022D02750FAEC1EF07E
:104128001F50DE5E2050DE5A2150DE5A2250DE5AE1
:104138002750FAEC1EF02350DE5C2450DE58255040
:10414800DE582650DE580BE22750FAEC1EF0DECF80
:1041580023F0DECF24F0DECF25F0DECF26F0272AAD
:1041680001017351275CC2E323C017F024C018F083
:1041780025C019F026C01AF01200240E00014DD8EF
:10418800E251EDEC2DF042D8E351EDEC2DF0540E58
:10419800646F2F0E656F666B0201E751EDEC2DF031
:1041A800240E3BD8E451EDEC2DF030D8E551EDEC80
:1041B8002DF0680E646F320E656F666B0201E85170
:1041C800EDEC2DF0640E646F5F0E656F666B020197
:1041D800E651EDEC2DF0200E646F4B0E656F666BAB
:1041E8000201EA51EDEC2DF0D00E646F3B0E656FC5
:1041F800666B0201F351EDEC2DF0C80E646F1B0ED7
:10420800656F666B0201E951EDEF2DF0040E646FE6
:104218003E0E656F666B02011200646F440E656F97
:10422800666B020112004AEC2FF064C03EF065C0D4
:104238003FF049041FE1496A43D8D8A0700770517C
:10424800716F2FD8766F39507321776F3A50742178
:10425800786F3B507521796F000E7625306E000E11
:104268007721316E010E7821326E000E792199EC9A
:104278001CF00ED025D8716B14D8306E39507321CC
:10428800316E3A507421326E3B507521A7EC1CF008
:1042980030C06AF031C06BF032C06CF033C06DF0E2
:1042A800120034506E5D726F35506F59736F36500F
:1042B8007059746F37507159756F385072251200E4
:1042C80044503E5C6E6F45503F586F6F706B1200E4
:1042D800666F070E0201EB6FEC6B000166513BD86D
:1042E80064C0DFFF6651B9EC2DF0000EDB82676B0E
:1042F80023D0675130D8DF500F0B0001656F0201E2
:10430800EB510001655D07E267512DD804E1675163
:1043180022D8DAEC1DF0000167511DD8E4EC1DF03D
:10432800EC6108D0000167511ED804E1675113D829
:10433800DFEC1DF00001672B0201ED510001675D04
:10434800D8E30201DF51EC5D02E3D4EF1DF0ECC2CB
:10435800DFF2D4EF1DF00E0D050EF324D96E040E16
:10436800F420DA6E12000E0D040EF324D96E040E3A
:10437800F420DA6EDE041200756F0001766B3ED809
:1043880030D818EC2EF073C0ABF1050E76273FD865
:1043980075C0DFFF762B745108E129D834D81CD8B2
:1043A800A0EC28F0040E762708D021D8620E666F9C
:1043B800020E12D8A0EC28F0F5D719D86E0E666F49
:1043C800676B9EEC17F0A0EC28F0040E7627762B8E
:1043D8001ED872C0DFFF1200676F696B040E686F2A
:1043E800040C676B666B696B100E686F100CAB0E74
:1043F8007625646F656B010E65231200AB0E646F42
:10440800010E656F12001E0E666F020E1200AB0ED3
:104418007625D96EDA6A010EDA221200E652E652E1
:10442800E652E652020103B13AD0020E121902E135
:1044380015EC30F00201EF51175D04E3EF51175D01
:10444800176F01D0176B8CEC30F064C052F065C068
:1044580053F066C054F067C055F024D80251F00BF1
:104468000309026F30EC31F0E150FC0FC8EC0EF09C
:10447800DECF76F0DECF77F0DECF78F0DECF79F0E2
:104488000201175167EC2EF0850E0201172554EC36
:104498001FF09DEC06F058EC1FF0D6EC10F0FB0E68
:1044A80044EF1EF0FC0E52C0E3FFFD0E53C0E3FFC5
:1044B800FE0E54C0E3FFFF0E55C0E3FFFF0C0101E1
:1044C8009E519EEC30F0080E666F120E79EC2FF0BC
:1044D800A5EC2DF075EC1BF00101989198B912002C
:1044E8009C51F0EC2CF08E5103E11AEC1AF00FE31A
:1044F80001019C51F0EC2CF00D0E02D021EC1AF0C9
:10450800E82EFCD701EC1AF034EC2AF00ED00101A9
:104518009C51F0EC2CF001EC1AF034EC2AF00D0E62
:1045280002D00FEC1AF0E82EFCD794C0DCF095C04E
:10453800DDF096C0DEF097C0DFF0DC512008D86FC0
:104548004E0EDD55D96F000EDE55DA6F000EDF55C1
:10455800DB6FD8C0B4F0D9C0B5F075EF04F03F0EEA
:104568008DEC2EF0ED6FEDA5120001019E519EEC31
:1045780030F001019D519EEC30F048EC31F0000E16
:10458800FBEC30F0FF0EFBEC30F00101996F0001FD
:10459800EE6B07D0EE5124D8FBEC30F0DF6E000153
:1045A800EE2B010199510001EE5DF4E346EC31F088
:1045B800A5EC2DF075EC1BF001019893800EA76F08
:1045C800910503E10001EDA303D00101988502D014
:1045D8000101989598A5CEEF0CF009D845EF00F0A9
:1045E80001019A25D96E000E9B21DA6EFF0C9AC143
:1045F8006BF19BC16CF199C16DF11200140EF66E4E
:104608005A0EF76E000EF86E01EEBDF020EE30F097
:104618000900F5CFEEFFDD50D950FAE1000EF66E35
:10462800620EF76E000EF86E00EE56F020EE08F0FF
:104638000900F5CFEEFFDD50D950FAE104EEE0F0C5
:1046480022EE1EF0EE6ADD50D950FCE1DA50FAE1B4
:1046580004EE00F0E00EEE6AE806FDE103EE00F07D
:10466800A00EEE6AE806FDE102EE00F0F50EEE6A35
:10467800E806FDE101EE6EF04F0EEE6AE806FDE198
:1046880000EE30F01A0EEE6AE806FDE1000148EF90
:104698001EF0F29E0001EC6B2CD0EC5131D8DE04F8
:1046A80026E1EC51FAEC1EF0DDEC0EF020E1EC51C5
:1046B80027D8DF6AEC512CD8DE50DE1018E0F28ED5
:1046C800EC51FBEC2DF0DF50E66EEC5121D8DECF3B
:1046D800E8F0DDCFE9F001D809D00500FA6EE8511D
:1046E800FD6EE951FE6EFF6AFA501200F29E00015B
:1046F800EC2B010173510001EC5DCFE3F28E120047
:10470800080D040EF324D96E030EF420DA6E12009D
:10471800080D060EF324D96E030EF420DA6E12008B
:104728000001EE6F020103A102BF120002510F0B3C
:1047380001E01200EEC01DF20001EE511FE102017E
:10474800A5B1A5A31200A5A7120020EC17F0EC6FE5
:10475800000ECCEC26F0ED6FED51D8A41200E00E5F
:10476800AA6F040EAB6FECC0ACF0F0EC0EF0AA51DF
:10477800AB11D8A41200010ECCEF2FF00201A5BB9B
:10478800A5A91200A5A51200070ECCEC2FF08F0EDC
:104798000001716F020E726F736B746B0201F3513B
:1047A8004FEC2CF00201F351FEEF25F00001656B90
:1047B8000201DF51EB5D3AE2DF050001676F2AD0A5
:1047C800666B1BD06651AFEC21F0DF500F0B000178
:1047D800646F6451675D10E36651AFEC21F0DF3818
:1047E8000F0B646F6751645D07E36651B7EC21F006
:1047F80003E1010E656F06D0662B0201ED51000141
:10480800665DE0E3655106E167510201EB5D02E296
:10481800000167070001655105E10201EB51000144
:10482800675DCEE2650502E167C0DFF20001655110
:10483800120000016A6B6B6B1ED06B51C5EC10F057
:10484800DE2818E025D8C5EC10F027D81BD86AC098
:1048580068F0696B6827000E692369BF05D0695144
:104868000FE1100E685D0CE213D8C5EC10F015D8F6
:1048780009D86A276B2B0201A75100016B5DDDE3A4
:104888006A511200F86A000EF8220800F55012006A
:10489800FE0E646F65696B511200DF50666F676BBF
:1048A8006451662765516723940E6625F66EFF0EE0
:1048B8006721F76E1200400E0001645D740E6559A1
:1048C8002A0E6659080E675909E3C10E645D490E40
:1048D80065596E0E66590A0E675925E3800E645DA8
:1048E8001A0E6559700E6659180E675909E3410E7C
:1048F800645DDD0E65594A0E66591F0E675913E34C
:10490800800E645D130E6559610E6659330E675942
:10491800D8A012006405F70E6559CB0E66593C0EF7
:104928006759D8B0120064C075F165C076F166C0E9
:1049380077F167C078F11200756F750E35D8FF0EE4
:104948009DEC06F0F55018EC31F071C064F072C0BF
:1049580065F073C066F074C067F05FEC24F0000E79
:10496800656B646BF1EC30F0070E756116D09B0E29
:104978007525F66EF76AFF0E9DEC06F0F55014ECFF
:1049880031F08D0E11D8FF0E9DEC06F0F5501CECA1
:1049980031F00201F451F6EF30F0FC0E6E6FFF0EAD
:1049A8006F6F030ED7EF2DF000017525F66EF76ACD
:1049B80012000001726B736B2DD875EC1BF00001AF
:1049C8006669110E79EC2FF0010E28D875EC1BF0F2
:1049D8000001746BD9EC1BF003EC2EF0D890723701
:1049E80073372C0E8DEC2EF0010B7213742B0F0EF7
:1049F8007465F0D70FD875EC1BF014D879EC2FF04C
:104A08000001666B110E79EC2FF072C070F073C064
:104A180071F01200010E696F6A6F000C0001696F76
:104A28006A6F050C00016669120C5D505C105B1022
:104A380004E10B0E5A5CD8A012005A506C5D5B5012
:104A48006D595C506E595D506F59D8B012006CC0EA
:104A58005AF06DC05BF06EC05CF06FC05DF044C092
:104A680074F045C075F06C510008446E6D5194ECBB
:104A780029F044C06AF045C06BF0A1EC2CF06AC084
:104A880072F06BC073F07451725D706F7551735929
:104A9800716F7051382671513922000E3A223B222B
:104AA800000C6C6B6D6B6E6B6F6B685169116A11E2
:104AB8006B1129E0010E706F06D0D89068376937FE
:104AC8006A376B37702B6BAFF8D7D8906C376D3768
:104AD8006E376F376851645D695165596A51665917
:104AE8006B51675909E36851645F6951655B6A51A5
:104AF800665B6B51675B6C81D8906B336A33693343
:104B08006833702FE2D76CC064F06DC065F06EC07A
:104B180066F06FC067F01200010ECCEC26F00009B9
:104B28000AE1F00E20D8F0EC0EF028D804E10201DA
:104B3800D82B1FD816D0E2EC30F001016E516F115E
:104B480010E0000ED1EC0DF0676B01D80AD005001B
:104B5800FA6E01016E51FD6E6F51FE6EFF6AFA50DA
:104B68001200E5521200AA6F040EAB6FD4C2ACF06B
:104B780012000251F00B0109026F1200AAC04BF09B
:104B8800ABC04CF04B504C101200070EEB6FEC6BA7
:104B98000001656B29D06551AFEC21F0DF500F0B98
:104BA8000001646F0201EB510001645D09E2655187
:104BB800B7EC21F005E16551AFEC21F0DAEC1DF01E
:104BC80000016551AFEC21F0E4EC1DF0EC610AD076
:104BD80000016551B7EC21F005E16551AFEC21F01A
:104BE800DFEC1DF00001652B0201ED510001655D50
:104BF800D2E312000001936FF29EA6EC1EF07AC079
:104C08008FF07BC090F07CC091F07DC092F0935102
:104C1800FAEC1EF08F51DE5C9051DE589151DE584F
:104C28009251DE580BE29351FAEC1EF0DECF8FF072
:104C3800DECF90F0DECF91F0DECF92F08FC06CF037
:104C480090C06DF091C06EF092C06FF019EC25F035
:104C5800935184EC23F0010EDF6EF28E010C320EBC
:104C680000016E6F020E1CD8EDEC27F0020E020157
:104C7800326F320E0001906F020E1FD87AEC2EF0C0
:104C8800220E6E6F020E0CD8EDEC27F0010E020119
:104C9800226F220E0001906F020E0FD87AEF2EF0CD
:104CA8006F6FA429706F000EA521716F040EA425E3
:104CB800726F000EA521736F1200916F420E926FF2
:104CC800020E936F12002DD806E002510F0B030A53
:104CD8001DE1F1511BE00091F00E0217125114E191
:104CE80001016E516F1110E019D8D1EC0DF0676B0E
:104CF80001D80AD00500FA6E01016E51FD6E6F51A0
:104D0800FE6EFF6AFA50120002010393020E121996
:104D1800D8A4120051EC04F060EF27F00201009BC8
:104D2800000C020102510F0B050A1200400E8DEC17
:104D38002EF0EF6F060EF06FD890EF33F02FFCD700
:104D4800EF51030BF16F010E8DEC2EF0F26FF2AF05
:104D58001CD003D0010E3AEF2FF0F15102E15DEFC4
:104D68001FF0010A02E163EF22F0F4D7070EF217F1
:104D7800030EF21902E1B2EF19F0050EF21902E181
:104D8800B3EF22F0000E3AEF2FF0F151EFE0FAD72F
:104D98000001B56FB5C0A9F0B70EAA6FAB6B100EC6
:104DA80011EC20F0B66FB6511AE1B7C0DAF2B7517C
:104DB80019D8DECF13F2DECF14F2DECF15F2DECF34
:104DC80016F2DFC217F213C276F014C277F015C2DA
:104DD80078F016C279F00201175176EC2BF0000139
:104DE800B65112000E0D000EF324D96E040EF420F5
:104DF800DA6E12000001756B480E766FE80E776F59
:104E0800010E786F75C064F076C065F077C066F003
:104E180078C067F071C068F072C069F073C06AF05A
:104E280074C06BF055EC25F064C075F065C076F081
:104E380066C077F067C078F076C066F0020E79EC4D
:104E48002FF075C066F0030E79EC2FF00001666B49
:104E58005D0E79EF2FF0685169116A116B1123E02B
:104E6800010E6C6F06D0D890683769376A376B3790
:104E78006C2B6BAFF8D76851645D695165596A51FD
:104E880066596B51675908E36851645F6951655BFE
:104E98006A51665B6B51675BD8906B336A336933D1
:104EA80068336C2FE8D764C064F065C065F066C0ED
:104EB80066F067C067F0120015EC30F030EC31F0A6
:104EC80020D867EC2EF00001AB6BAA6BD6EC10F083
:104ED800AA51AB11D8B41200A7EC30F0E2EC30F0D4
:104EE800D6EC03F0D8B41200D1EC0DF0676B0500D6
:104EF800FA6A01016E51FD6E6F51FE6EFF6AFA503B
:104F0800120018C276F019C277F01AC278F01BC2E4
:104F180079F002011C51120071C075F072C076F070
:104F280073C077F074C078F077C078F076C077F007
:104F380075C076F00001756B75C064F076C065F0D9
:104F480077C066F078C067F0090E48EC1CF055ECA5
:104F580025F064C075F065C076F066C077F067C06C
:104F680078F076C066F0040E79EC2FF075C066F024
:104F7800050E79EF2FF0686B0201A45116E1810E3E
:104F88000001645D250E6559DB0E6659330E6759BD
:104F980009E2C00E645D550E6559700E6659330EF0
:104FA800675915E2030E686F12D0710E0001645D37
:104FB8005E0E6559EA0E6659190E6759F3E2900EAE
:104FC800645DD10E6559CF0E6659190EE9D768513F
:104FD8001200746B6EC064F06FC065F0F5EC21F0E0
:104FE80018EC2EF0742B18D870C066F071C067F0FA
:104FF8001AD8A0EC28F0030E74270ED872C066F0F9
:1050080073C067F010D8A0EC28F0030E742704D8FA
:10501800A2EC17F0A0EF28F074516E25646F000E13
:105028006F21656F1200696B030E686F030C1DD842
:10503800E9EC2AF0E00E686F18EC2EF01BD8A80EE9
:10504800666FFF0E1CD8A0EC28F0030E6E6F6E5131
:10505800CFEC06F0DE68DD686E51AFEC21F0DF685A
:105068006E2B0F0E6E65F3D70F0C000E0001646FE8
:10507800040E1200000E646F040E656F1200676F55
:10508800696B2A0E686F2A0C060E6A190CE16BC050
:105098006DF005D021D884EC1DF000016D2B6C510A
:1050A8006D5DF8E312006A51D8A412006BC06DF070
:1050B8000FD068A104D010D884EC1DF004D0646B24
:1050C8006D5184EC1DF00001D890693368336D2B65
:1050D8006C516D5DEEE31200010E646F6D511200AC
:1050E800000123D8DFBA000C20D8DFBC000C64C054
:1050F800D9FF65C0DAFFDF38E832070B030A01E0A1
:10510800000C13D8DF500F0B01E0000C20EE08F064
:105118006451D9266551DA22DF5001E1000C05D827
:10512800DFA8010C02010087010C20EE05F0645194
:10513800D9266551DA22120066C06CF067C06DF09E
:1051480064C06AF065C06BF01BD06CC0F6FF6DC020
:10515800F7FF000EF86E6AC0D9FF6BC0DAFF0D0EBC
:10516800F76403D00800F55005D0F6CFE9FFF7CF74
:10517800EAFFEF50DF6E00016C4B6D2B6A4B6B2B17
:105188006807D8A069076829E0E16929DEE112000B
:105198000201D6EC0DF0A0510001946F0201A1515B
:1051A8000001956F966B976B0C0ED89094379537D6
:1051B80096379737E82EF9D794C064F095C065F014
:1051C80096C066F097C067F07D0E99EC11F055EC2B
:1051D80025F093EC06F0E8514FEC2CF00201E85171
:1051E800FEEF25F00001686F666B64AF03D0646D55
:1051F800010E666F68AF03D0686D010E661B676BA2
:10520800645114E0010E656F03D0D8906437652BA4
:1052180064AFFBD7D89067376451685D03E3645186
:10522800685F6781D8906433652FF4D7665101E0D1
:10523800676D67511200DF6BE06BE16BE26BDAC000
:10524800CCF0DBC0CDF0AB0ECE6F010ECF6FDCC063
:10525800D0F0DDC0D1F0DEC0D2F0F4EC08F0DF0E03
:10526800646F656B0DD8F0EC21F0A0EC28F0DFC07E
:10527800DAF0E0C0DBF0E1C0DCF0E2C0DDF0120003
:10528800AB0E666F010E120012EC2BF00201E26FFA
:1052980012EC2BF00201E36F12EC2BF00201E46F29
:1052A80012EC2BF00201E56F12EC2BF00201E76F14
:1052B80012EC2BF00201E86F12EC2BF00201E66F02
:1052C80012EC2BF00201EA6F12EC2BF00201F36FE3
:1052D80012EC2BF00201E96F1200010E496E6AEC24
:1052E80020F017C05AF018C05BF019C05CF01AC063
:1052F8005DF05D5014E15C04D8B012005A5000080B
:10530800446E5B500DD844C007F045C008F097ECD8
:105318002BF007C038F008C039F03A6A3B6A12002F
:10532800D8A0E82A0008456E120064C0D9FF65C0FD
:10533800DAFFDF50696F644B652B0F0E696112D07D
:1053480069C066F0010E676F686B662B03D0D89052
:1053580067376837662FFBD767C0DBF268C0DCF2B7
:105368000201038D0001692902E10201028F64C074
:1053780064F065C065F0120056C094F057C095F00F
:1053880058C096F059C097F06D0E986F4E0E996FF1
:10539800C60E9A6F410E9B6F34EC2AF094C056F0FB
:1053A80095C057F096C058F097C059F0390E562658
:1053B800300E5722000E582259225850A06F7F0EE7
:1053C8005914A16F1200E2519EEC30F00201E35132
:1053D8009EEC30F00201E7519EEC30F00201E451FE
:1053E8009EEC30F00201E5519EEC30F00201E851EC
:1053F8009EEC30F00201E6519EEC30F00201EA51D9
:105408009EEC30F00201F3519EEC30F00201E951BC
:105418009EEF30F00201F05108E148EC29F0C1ECB0
:1054280020F0010E0201F06F02D0E7EC29F0ACC0C9
:105438006EF1ADC06FF1AEC070F1AFC071F1FF0E8B
:1054480000018CEC14F0B5EC11F0DDEC24F070C028
:1054580075F071C076F0B6EC30F0000EFFEF13F087
:105468009C6B9D6B9E6B9F6B94A108D098519C2759
:1054780099519D239A519E239B519F23D8909837E9
:1054880099379A379B37D890973396339533943317
:105498009451951196119711E7E19CC094F09DC025
:1054A80095F09EC096F09FC097F012003393F28259
:1054B800AC0E0001646F620E656FD8EC30F00E011F
:1054C80029833395F284AA0E0001646F620E656F1A
:1054D800D3EC30F00E0129853391F280000E0001E3
:1054E800646B656B51EC31F00E013397F286000165
:1054F800646B656B000C1CD8DFAE02D00201028D14
:1055080017D8DFA802D00201008712D8DFAC02D07A
:105518000201008964C0D9FF65C0DAFF0001DF38E5
:10552800E832070B050AD8A4120002010083120012
:10553800000120EE05F06451D9266551DA221200E7
:105548006B6B6A6B68C06BF01CD06B516625D96EAB
:10555800000E6721DA6E6B516425E96E000E652135
:10556800EA6EEF50696FD89069356A11DF6E6B513A
:105578006425D96E000E6521DA6E010EDFAE000ECD
:105588006A6F6B076B29E1E1120039EC28F01DD82E
:10559800E00E686F18EC2EF03EEC28F0D20E666F25
:1055A800FF0E43EC28F0A0EC28F0030E6E6F6E514E
:1055B800CFEC06F0DE68DD686E51AFEC21F0DF68F5
:1055C8006E2B0F0E6E65F3D70F0C656F676B666BEE
:1055D800696B1200400E8DEC2EF07D6FD8907D33F4
:1055E800D8907D31030B7E6F010E8DEC2EF0010EED
:1055F8008DEC2EF07D6F7DAF120003D0010E3AEFD7
:105608002FF07E5102E139EF2DF0010A02E139EF66
:105618002DF0030A02E139EF2DF0F0D7140E010145
:1056280073611AD0F29E73C164F00001645184EC76
:1056380023F0DF6A6451FAEC1EF0CFEC1DF06451E0
:10564800FBEC2DF0DF6A64518CEC23F0DE6ADD6A36
:105658000101732BF28E01D0FFD7000164511200B3
:10566800656B010E79A0000EFF0A646F795064190A
:10567800FE0B6419796E820E646FDE0EE82EFED77B
:10568800642FFCD7820E0001646FDE0EE82EFED771
:10569800642FFCD70001652B090E6565E2D7799068
:1056A800090C340ECF6ED06AD16A010ED26E0B0E81
:1056B800CE6EDC0ECD6ECD50CECF66F0676B66C079
:1056C80067F0666B66115E6E67515F6E0E0138910A
:1056D8002E81A60E0001646F620E656FCEEC30F06D
:1056E8003CEF31F000017A6F76C071F077C072F04C
:1056F80078C073F079C074F07A51A0EC24F0A20E4F
:105708000201E125F66EF76AFF0E9DEC06F0F5CF73
:105718007BF000017B5110EC31F0010EECEC30F025
:10572800000EE7EF30F05AEC2FF001C040F002C055
:1057380041F05AEC2FF04050011803E14150021893
:10574800F8E007C001F008C002F02DEC30F005D8F1
:1057580042C007F043C008F01200404A412A40C046
:1057680042F041C043F01200746B756B766B776B37
:10577800740E646F656B70516E25726F000E6F2129
:10578800736FFC0E7225666FFF0E7321F0EC21F02B
:10579800A0EC28F074C06EF075C06FF076C070F0A1
:1057A80077C071F01200A451A51117E0010EA66F81
:1057B80004D0D890A437A537A62BA5AFFAD7A45103
:1057C800A25DA551A35904E3A451A25FA551A35B0F
:1057D800D890A533A433A62FF2D7A2C0A2F0A3C0B5
:1057E800A3F012004DEC23F0AFEC30F00101746F20
:1057F80074B19AEC26F0010174B332EC2CF001017B
:1058080074B5EEEC2AF0010174B7FDEC2FF001013C
:1058180074B9F1EC2FF0010174BBE5EC2FF0120024
:105828001DEC24F06D6F0201A75106E111D89DEC23
:1058380006F0F5CF6EF009D00BD89DEC06F0F5CF49
:105848006CF000016D516C5D6E6F00016E511200BD
:105858006D0EDF25F66EF76AFF0E1200400E8DEC16
:105868002EF0C46FC4390F0B030BC56F010E8DECFE
:105878002EF0C46FC4AF0DD003D0010E3AEF2FF055
:10588800C55102E195EF2DF0010A02E139EF2DF043
:10589800F4D7C55112000001796FF29EE00E712510
:1058A800756FFF0E7221766FFF0E7321776FFF0EF3
:1058B8007421786F7951FAEC1EF075C0DEFF76C05E
:1058C800DEFF77C0DEFF78C0DEFFF28E1200CAEC82
:1058D8000FF075EC1BF0A5EC2DF075EC1BF0010139
:1058E800988998A304D09893CEEC0CF009D098A18D
:1058F80007D098919FC1B4F0A0C1B5F075EC04F041
:10590800E552120000016A6F6AC064F0656B030E0D
:10591800676FE80E666F41EC2EF064C094F265C0C4
:1059280095F26A5102E198EC14F0E80E0201942510
:10593800966F030E9521976F12004AEC2FF064C002
:1059480040F065C041F04AEC2FF04050641903E183
:1059580041506519F8E06AC064F06BC065F021EC4D
:1059680030F0B1EC2BF042C06AF043C06BF012008B
:10597800E6523E0E8DEC2EF0556EFF0E55C0E3FF3D
:10598800E3B00DD015EC1AF075EC1BF001019E5137
:105998009EEC30F001019893CEEC0CF000D0E5526B
:1059A800E5521200676F0001666B67510F0B696F54
:1059B80067390F0B686F68516FEC30F0000908E128
:1059C80069516FEC30F0000903E16951685D02E24A
:1059D800030E666F665112000001936FF29EA6ECEB
:1059E8001EF09351FAEC1EF0DECF8FF0DECF90F070
:1059F800DECF91F0DECF92F0F28E8FC08BF090C0A8
:105A08008CF091C08DF092C08EF012000000000062
:105A18000000000000000000000000873F1F9958A8
:105A2800DFCB637FADC0608E164B22B76AC2D790BA
:105A380005623476D08D5F9C5707A3FF6E516F11B6
:105A4800D8B41200320E646F020E656F6EC066F035
:105A58006FC067F006D8A0EC28F00201A58B029968
:105A68001200696B100E686F100C120E8DEC2EF080
:105A78000101935194110AE0A451A51107E0000116
:105A8800716B726B736B746BE2EC1BF0020E0001AE
:105A9800666F120E79EF2FF06A6F010E0001646FC6
:105AA8006A516AEC2FF0000901E012006A51B9EC62
:105AB8002DF0DF50070B070AD8A4120068C064F065
:105AC8006A5184EF1DF064516511D8B4030C666BFC
:105AD80064A108D06651B9EC2DF0DF50070B070A16
